{
  "_format": "hh-sol-artifact-1",
  "contractName": "OptimismMintableERC20",
  "sourceName": "contracts/OptimismMintableERC20.sol",
  "abi": [
    {
      "inputs": [
        {
          "internalType": "address",
          "name": "_bridge",
          "type": "address"
        },
        {
          "internalType": "address",
          "name": "_remoteToken",
          "type": "address"
        },
        {
          "internalType": "string",
          "name": "_name",
          "type": "string"
        },
        {
          "internalType": "string",
          "name": "_symbol",
          "type": "string"
        }
      ],
      "stateMutability": "nonpayable",
      "type": "constructor"
    },
    {
      "inputs": [
        {
          "internalType": "address",
          "name": "spender",
          "type": "address"
        },
        {
          "internalType": "uint256",
          "name": "allowance",
          "type": "uint256"
        },
        {
          "internalType": "uint256",
          "name": "needed",
          "type": "uint256"
        }
      ],
      "name": "ERC20InsufficientAllowance",
      "type": "error"
    },
    {
      "inputs": [
        {
          "internalType": "address",
          "name": "sender",
          "type": "address"
        },
        {
          "internalType": "uint256",
          "name": "balance",
          "type": "uint256"
        },
        {
          "internalType": "uint256",
          "name": "needed",
          "type": "uint256"
        }
      ],
      "name": "ERC20InsufficientBalance",
      "type": "error"
    },
    {
      "inputs": [
        {
          "internalType": "address",
          "name": "approver",
          "type": "address"
        }
      ],
      "name": "ERC20InvalidApprover",
      "type": "error"
    },
    {
      "inputs": [
        {
          "internalType": "address",
          "name": "receiver",
          "type": "address"
        }
      ],
      "name": "ERC20InvalidReceiver",
      "type": "error"
    },
    {
      "inputs": [
        {
          "internalType": "address",
          "name": "sender",
          "type": "address"
        }
      ],
      "name": "ERC20InvalidSender",
      "type": "error"
    },
    {
      "inputs": [
        {
          "internalType": "address",
          "name": "spender",
          "type": "address"
        }
      ],
      "name": "ERC20InvalidSpender",
      "type": "error"
    },
    {
      "anonymous": false,
      "inputs": [
        {
          "indexed": true,
          "internalType": "address",
          "name": "owner",
          "type": "address"
        },
        {
          "indexed": true,
          "internalType": "address",
          "name": "spender",
          "type": "address"
        },
        {
          "indexed": false,
          "internalType": "uint256",
          "name": "value",
          "type": "uint256"
        }
      ],
      "name": "Approval",
      "type": "event"
    },
    {
      "anonymous": false,
      "inputs": [
        {
          "indexed": true,
          "internalType": "address",
          "name": "account",
          "type": "address"
        },
        {
          "indexed": false,
          "internalType": "uint256",
          "name": "amount",
          "type": "uint256"
        }
      ],
      "name": "Burn",
      "type": "event"
    },
    {
      "anonymous": false,
      "inputs": [
        {
          "indexed": true,
          "internalType": "address",
          "name": "account",
          "type": "address"
        },
        {
          "indexed": false,
          "internalType": "uint256",
          "name": "amount",
          "type": "uint256"
        }
      ],
      "name": "Mint",
      "type": "event"
    },
    {
      "anonymous": false,
      "inputs": [
        {
          "indexed": true,
          "internalType": "address",
          "name": "from",
          "type": "address"
        },
        {
          "indexed": true,
          "internalType": "address",
          "name": "to",
          "type": "address"
        },
        {
          "indexed": false,
          "internalType": "uint256",
          "name": "value",
          "type": "uint256"
        }
      ],
      "name": "Transfer",
      "type": "event"
    },
    {
      "inputs": [],
      "name": "BRIDGE",
      "outputs": [
        {
          "internalType": "address",
          "name": "",
          "type": "address"
        }
      ],
      "stateMutability": "view",
      "type": "function"
    },
    {
      "inputs": [],
      "name": "REMOTE_TOKEN",
      "outputs": [
        {
          "internalType": "address",
          "name": "",
          "type": "address"
        }
      ],
      "stateMutability": "view",
      "type": "function"
    },
    {
      "inputs": [
        {
          "internalType": "address",
          "name": "owner",
          "type": "address"
        },
        {
          "internalType": "address",
          "name": "spender",
          "type": "address"
        }
      ],
      "name": "allowance",
      "outputs": [
        {
          "internalType": "uint256",
          "name": "",
          "type": "uint256"
        }
      ],
      "stateMutability": "view",
      "type": "function"
    },
    {
      "inputs": [
        {
          "internalType": "address",
          "name": "spender",
          "type": "address"
        },
        {
          "internalType": "uint256",
          "name": "value",
          "type": "uint256"
        }
      ],
      "name": "approve",
      "outputs": [
        {
          "internalType": "bool",
          "name": "",
          "type": "bool"
        }
      ],
      "stateMutability": "nonpayable",
      "type": "function"
    },
    {
      "inputs": [
        {
          "internalType": "address",
          "name": "account",
          "type": "address"
        }
      ],
      "name": "balanceOf",
      "outputs": [
        {
          "internalType": "uint256",
          "name": "",
          "type": "uint256"
        }
      ],
      "stateMutability": "view",
      "type": "function"
    },
    {
      "inputs": [],
      "name": "bridge",
      "outputs": [
        {
          "internalType": "address",
          "name": "",
          "type": "address"
        }
      ],
      "stateMutability": "view",
      "type": "function"
    },
    {
      "inputs": [
        {
          "internalType": "address",
          "name": "_from",
          "type": "address"
        },
        {
          "internalType": "uint256",
          "name": "_amount",
          "type": "uint256"
        }
      ],
      "name": "burn",
      "outputs": [],
      "stateMutability": "nonpayable",
      "type": "function"
    },
    {
      "inputs": [],
      "name": "decimals",
      "outputs": [
        {
          "internalType": "uint8",
          "name": "",
          "type": "uint8"
        }
      ],
      "stateMutability": "view",
      "type": "function"
    },
    {
      "inputs": [],
      "name": "l1Token",
      "outputs": [
        {
          "internalType": "address",
          "name": "",
          "type": "address"
        }
      ],
      "stateMutability": "view",
      "type": "function"
    },
    {
      "inputs": [],
      "name": "l2Bridge",
      "outputs": [
        {
          "internalType": "address",
          "name": "",
          "type": "address"
        }
      ],
      "stateMutability": "view",
      "type": "function"
    },
    {
      "inputs": [
        {
          "internalType": "address",
          "name": "_to",
          "type": "address"
        },
        {
          "internalType": "uint256",
          "name": "_amount",
          "type": "uint256"
        }
      ],
      "name": "mint",
      "outputs": [],
      "stateMutability": "nonpayable",
      "type": "function"
    },
    {
      "inputs": [],
      "name": "name",
      "outputs": [
        {
          "internalType": "string",
          "name": "",
          "type": "string"
        }
      ],
      "stateMutability": "view",
      "type": "function"
    },
    {
      "inputs": [],
      "name": "remoteToken",
      "outputs": [
        {
          "internalType": "address",
          "name": "",
          "type": "address"
        }
      ],
      "stateMutability": "view",
      "type": "function"
    },
    {
      "inputs": [
        {
          "internalType": "bytes4",
          "name": "_interfaceId",
          "type": "bytes4"
        }
      ],
      "name": "supportsInterface",
      "outputs": [
        {
          "internalType": "bool",
          "name": "",
          "type": "bool"
        }
      ],
      "stateMutability": "pure",
      "type": "function"
    },
    {
      "inputs": [],
      "name": "symbol",
      "outputs": [
        {
          "internalType": "string",
          "name": "",
          "type": "string"
        }
      ],
      "stateMutability": "view",
      "type": "function"
    },
    {
      "inputs": [],
      "name": "totalSupply",
      "outputs": [
        {
          "internalType": "uint256",
          "name": "",
          "type": "uint256"
        }
      ],
      "stateMutability": "view",
      "type": "function"
    },
    {
      "inputs": [
        {
          "internalType": "address",
          "name": "to",
          "type": "address"
        },
        {
          "internalType": "uint256",
          "name": "value",
          "type": "uint256"
        }
      ],
      "name": "transfer",
      "outputs": [
        {
          "internalType": "bool",
          "name": "",
          "type": "bool"
        }
      ],
      "stateMutability": "nonpayable",
      "type": "function"
    },
    {
      "inputs": [
        {
          "internalType": "address",
          "name": "from",
          "type": "address"
        },
        {
          "internalType": "address",
          "name": "to",
          "type": "address"
        },
        {
          "internalType": "uint256",
          "name": "value",
          "type": "uint256"
        }
      ],
      "name": "transferFrom",
      "outputs": [
        {
          "internalType": "bool",
          "name": "",
          "type": "bool"
        }
      ],
      "stateMutability": "nonpayable",
      "type": "function"
    },
    {
      "inputs": [],
      "name": "version",
      "outputs": [
        {
          "internalType": "string",
          "name": "",
          "type": "string"
        }
      ],
      "stateMutability": "view",
      "type": "function"
    }
  ],
  "bytecode": "0x6101206040523480156200001257600080fd5b506040516200216c3803806200216c8339818101604052810190620000389190620002eb565b600160008084848160039081620000509190620005e6565b508060049081620000629190620005e6565b50505082608081815250508160a081815250508060c081815250505050508273ffffffffffffffffffffffffffffffffffffffff1660e08173ffffffffffffffffffffffffffffffffffffffff16815250508373ffffffffffffffffffffffffffffffffffffffff166101008173ffffffffffffffffffffffffffffffffffffffff168152505050505050620006cd565b6000604051905090565b600080fd5b600080fd5b600073ffffffffffffffffffffffffffffffffffffffff82169050919050565b6000620001348262000107565b9050919050565b620001468162000127565b81146200015257600080fd5b50565b60008151905062000166816200013b565b92915050565b600080fd5b600080fd5b6000601f19601f8301169050919050565b7f4e487b7100000000000000000000000000000000000000000000000000000000600052604160045260246000fd5b620001c18262000176565b810181811067ffffffffffffffff82111715620001e357620001e262000187565b5b80604052505050565b6000620001f8620000f3565b9050620002068282620001b6565b919050565b600067ffffffffffffffff82111562000229576200022862000187565b5b620002348262000176565b9050602081019050919050565b60005b838110156200026157808201518184015260208101905062000244565b60008484015250505050565b6000620002846200027e846200020b565b620001ec565b905082815260208101848484011115620002a357620002a262000171565b5b620002b084828562000241565b509392505050565b600082601f830112620002d057620002cf6200016c565b5b8151620002e28482602086016200026d565b91505092915050565b60008060008060808587031215620003085762000307620000fd565b5b6000620003188782880162000155565b94505060206200032b8782880162000155565b935050604085015167ffffffffffffffff8111156200034f576200034e62000102565b5b6200035d87828801620002b8565b925050606085015167ffffffffffffffff81111562000381576200038062000102565b5b6200038f87828801620002b8565b91505092959194509250565b600081519050919050565b7f4e487b7100000000000000000000000000000000000000000000000000000000600052602260045260246000fd5b60006002820490506001821680620003ee57607f821691505b602082108103620004045762000403620003a6565b5b50919050565b60008190508160005260206000209050919050565b60006020601f8301049050919050565b600082821b905092915050565b6000600883026200046e7fffffffffffffffffffffffffffffffffffffffffffffffffffffffffffffffff826200042f565b6200047a86836200042f565b95508019841693508086168417925050509392505050565b6000819050919050565b6000819050919050565b6000620004c7620004c1620004bb8462000492565b6200049c565b62000492565b9050919050565b6000819050919050565b620004e383620004a6565b620004fb620004f282620004ce565b8484546200043c565b825550505050565b600090565b6200051262000503565b6200051f818484620004d8565b505050565b5b8181101562000547576200053b60008262000508565b60018101905062000525565b5050565b601f821115620005965762000560816200040a565b6200056b846200041f565b810160208510156200057b578190505b620005936200058a856200041f565b83018262000524565b50505b505050565b600082821c905092915050565b6000620005bb600019846008026200059b565b1980831691505092915050565b6000620005d68383620005a8565b9150826002028217905092915050565b620005f1826200039b565b67ffffffffffffffff8111156200060d576200060c62000187565b5b620006198254620003d5565b620006268282856200054b565b600060209050601f8311600181146200065e576000841562000649578287015190505b620006558582620005c8565b865550620006c5565b601f1984166200066e866200040a565b60005b82811015620006985784890151825560018201915060208501945060208101905062000671565b86831015620006b85784890151620006b4601f891682620005a8565b8355505b6001600288020188555050505b505050505050565b60805160a05160c05160e05161010051611a306200073c6000396000818161063001528181610897015281816109a601528181610aa50152610acb015260008181610515015281816109ce01526109f601526000610771015260006107480152600061071f0152611a306000f3fe608060405234801561001057600080fd5b50600436106101215760003560e01c806370a08231116100ad578063c01e1bd611610071578063c01e1bd614610320578063d6c0b2c41461033e578063dd62ed3e1461035c578063e78cea921461038c578063ee9a31a2146103aa57610121565b806370a082311461026857806395d89b41146102985780639dc29fac146102b6578063a9059cbb146102d2578063ae1f6aaf1461030257610121565b806318160ddd116100f457806318160ddd146101c257806323b872dd146101e0578063313ce5671461021057806340c10f191461022e57806354fd4d501461024a57610121565b806301ffc9a714610126578063033964be1461015657806306fdde0314610174578063095ea7b314610192575b600080fd5b610140600480360381019061013b919061140d565b6103c8565b60405161014d9190611455565b60405180910390f35b61015e610513565b60405161016b91906114b1565b60405180910390f35b61017c610537565b604051610189919061155c565b60405180910390f35b6101ac60048036038101906101a791906115e0565b6105c9565b6040516101b99190611455565b60405180910390f35b6101ca6105ec565b6040516101d7919061162f565b60405180910390f35b6101fa60048036038101906101f5919061164a565b6105f6565b6040516102079190611455565b60405180910390f35b610218610625565b60405161022591906116b9565b60405180910390f35b610248600480360381019061024391906115e0565b61062e565b005b610252610718565b60405161025f919061155c565b60405180910390f35b610282600480360381019061027d91906116d4565b6107bb565b60405161028f919061162f565b60405180910390f35b6102a0610803565b6040516102ad919061155c565b60405180910390f35b6102d060048036038101906102cb91906115e0565b610895565b005b6102ec60048036038101906102e791906115e0565b61097f565b6040516102f99190611455565b60405180910390f35b61030a6109a2565b60405161031791906114b1565b60405180910390f35b6103286109ca565b60405161033591906114b1565b60405180910390f35b6103466109f2565b60405161035391906114b1565b60405180910390f35b61037660048036038101906103719190611701565b610a1a565b604051610383919061162f565b60405180910390f35b610394610aa1565b6040516103a191906114b1565b60405180910390f35b6103b2610ac9565b6040516103bf91906114b1565b60405180910390f35b6000807f01ffc9a700000000000000000000000000000000000000000000000000000000905060007f1d1d8b6300000000000000000000000000000000000000000000000000000000905060007fec4fc8e3000000000000000000000000000000000000000000000000000000009050827bffffffffffffffffffffffffffffffffffffffffffffffffffffffff1916857bffffffffffffffffffffffffffffffffffffffffffffffffffffffff191614806104c15750817bffffffffffffffffffffffffffffffffffffffffffffffffffffffff1916857bffffffffffffffffffffffffffffffffffffffffffffffffffffffff1916145b806105095750807bffffffffffffffffffffffffffffffffffffffffffffffffffffffff1916857bffffffffffffffffffffffffffffffffffffffffffffffffffffffff1916145b9350505050919050565b7f000000000000000000000000000000000000000000000000000000000000000081565b60606003805461054690611770565b80601f016020809104026020016040519081016040528092919081815260200182805461057290611770565b80156105bf5780601f10610594576101008083540402835291602001916105bf565b820191906000526020600020905b8154815290600101906020018083116105a257829003601f168201915b5050505050905090565b6000806105d4610aed565b90506105e1818585610af5565b600191505092915050565b6000600254905090565b600080610601610aed565b905061060e858285610b07565b610619858585610b9b565b60019150509392505050565b60006012905090565b7f000000000000000000000000000000000000000000000000000000000000000073ffffffffffffffffffffffffffffffffffffffff163373ffffffffffffffffffffffffffffffffffffffff16146106bc576040517f08c379a00000000000000000000000000000000000000000000000000000000081526004016106b390611813565b60405180910390fd5b6106c68282610c8f565b8173ffffffffffffffffffffffffffffffffffffffff167f0f6798a560793a54c3bcfe86a93cde1e73087d944c0ea20544137d41213968858260405161070c919061162f565b60405180910390a25050565b60606107437f0000000000000000000000000000000000000000000000000000000000000000610d11565b61076c7f0000000000000000000000000000000000000000000000000000000000000000610d11565b6107957f0000000000000000000000000000000000000000000000000000000000000000610d11565b6040516020016107a7939291906118bb565b604051602081830303815290604052905090565b60008060008373ffffffffffffffffffffffffffffffffffffffff1673ffffffffffffffffffffffffffffffffffffffff168152602001908152602001600020549050919050565b60606004805461081290611770565b80601f016020809104026020016040519081016040528092919081815260200182805461083e90611770565b801561088b5780601f106108605761010080835404028352916020019161088b565b820191906000526020600020905b81548152906001019060200180831161086e57829003601f168201915b5050505050905090565b7f000000000000000000000000000000000000000000000000000000000000000073ffffffffffffffffffffffffffffffffffffffff163373ffffffffffffffffffffffffffffffffffffffff1614610923576040517f08c379a000000000000000000000000000000000000000000000000000000000815260040161091a90611813565b60405180910390fd5b61092d8282610ddf565b8173ffffffffffffffffffffffffffffffffffffffff167fcc16f5dbb4873280815c1ee09dbd06736cffcc184412cf7a71a0fdb75d397ca582604051610973919061162f565b60405180910390a25050565b60008061098a610aed565b9050610997818585610b9b565b600191505092915050565b60007f0000000000000000000000000000000000000000000000000000000000000000905090565b60007f0000000000000000000000000000000000000000000000000000000000000000905090565b60007f0000000000000000000000000000000000000000000000000000000000000000905090565b6000600160008473ffffffffffffffffffffffffffffffffffffffff1673ffffffffffffffffffffffffffffffffffffffff16815260200190815260200160002060008373ffffffffffffffffffffffffffffffffffffffff1673ffffffffffffffffffffffffffffffffffffffff16815260200190815260200160002054905092915050565b60007f0000000000000000000000000000000000000000000000000000000000000000905090565b7f000000000000000000000000000000000000000000000000000000000000000081565b600033905090565b610b028383836001610e61565b505050565b6000610b138484610a1a565b90507fffffffffffffffffffffffffffffffffffffffffffffffffffffffffffffffff8114610b955781811015610b85578281836040517ffb8f41b2000000000000000000000000000000000000000000000000000000008152600401610b7c93929190611902565b60405180910390fd5b610b9484848484036000610e61565b5b50505050565b600073ffffffffffffffffffffffffffffffffffffffff168373ffffffffffffffffffffffffffffffffffffffff1603610c0d5760006040517f96c6fd1e000000000000000000000000000000000000000000000000000000008152600401610c0491906114b1565b60405180910390fd5b600073ffffffffffffffffffffffffffffffffffffffff168273ffffffffffffffffffffffffffffffffffffffff1603610c7f5760006040517fec442f05000000000000000000000000000000000000000000000000000000008152600401610c7691906114b1565b60405180910390fd5b610c8a838383611038565b505050565b600073ffffffffffffffffffffffffffffffffffffffff168273ffffffffffffffffffffffffffffffffffffffff1603610d015760006040517fec442f05000000000000000000000000000000000000000000000000000000008152600401610cf891906114b1565b60405180910390fd5b610d0d60008383611038565b5050565b606060006001610d208461125d565b01905060008167ffffffffffffffff811115610d3f57610d3e611939565b5b6040519080825280601f01601f191660200182016040528015610d715781602001600182028036833780820191505090505b509050600082602001820190505b600115610dd4578080600190039150507f3031323334353637383961626364656600000000000000000000000000000000600a86061a8153600a8581610dc857610dc7611968565b5b04945060008503610d7f575b819350505050919050565b600073ffffffffffffffffffffffffffffffffffffffff168273ffffffffffffffffffffffffffffffffffffffff1603610e515760006040517f96c6fd1e000000000000000000000000000000000000000000000000000000008152600401610e4891906114b1565b60405180910390fd5b610e5d82600083611038565b5050565b600073ffffffffffffffffffffffffffffffffffffffff168473ffffffffffffffffffffffffffffffffffffffff1603610ed35760006040517fe602df05000000000000000000000000000000000000000000000000000000008152600401610eca91906114b1565b60405180910390fd5b600073ffffffffffffffffffffffffffffffffffffffff168373ffffffffffffffffffffffffffffffffffffffff1603610f455760006040517f94280d62000000000000000000000000000000000000000000000000000000008152600401610f3c91906114b1565b60405180910390fd5b81600160008673ffffffffffffffffffffffffffffffffffffffff1673ffffffffffffffffffffffffffffffffffffffff16815260200190815260200160002060008573ffffffffffffffffffffffffffffffffffffffff1673ffffffffffffffffffffffffffffffffffffffff168152602001908152602001600020819055508015611032578273ffffffffffffffffffffffffffffffffffffffff168473ffffffffffffffffffffffffffffffffffffffff167f8c5be1e5ebec7d5bd14f71427d1e84f3dd0314c0f7b2291e5b200ac8c7c3b92584604051611029919061162f565b60405180910390a35b50505050565b600073ffffffffffffffffffffffffffffffffffffffff168373ffffffffffffffffffffffffffffffffffffffff160361108a57806002600082825461107e91906119c6565b9250508190555061115d565b60008060008573ffffffffffffffffffffffffffffffffffffffff1673ffffffffffffffffffffffffffffffffffffffff16815260200190815260200160002054905081811015611116578381836040517fe450d38c00000000000000000000000000000000000000000000000000000000815260040161110d93929190611902565b60405180910390fd5b8181036000808673ffffffffffffffffffffffffffffffffffffffff1673ffffffffffffffffffffffffffffffffffffffff16815260200190815260200160002081905550505b600073ffffffffffffffffffffffffffffffffffffffff168273ffffffffffffffffffffffffffffffffffffffff16036111a657806002600082825403925050819055506111f3565b806000808473ffffffffffffffffffffffffffffffffffffffff1673ffffffffffffffffffffffffffffffffffffffff168152602001908152602001600020600082825401925050819055505b8173ffffffffffffffffffffffffffffffffffffffff168373ffffffffffffffffffffffffffffffffffffffff167fddf252ad1be2c89b69c2b068fc378daa952ba7f163c4a11628f55a4df523b3ef83604051611250919061162f565b60405180910390a3505050565b600080600090507a184f03e93ff9f4daa797ed6e38ed64bf6a1f01000000000000000083106112bb577a184f03e93ff9f4daa797ed6e38ed64bf6a1f01000000000000000083816112b1576112b0611968565b5b0492506040810190505b6d04ee2d6d415b85acef810000000083106112f8576d04ee2d6d415b85acef810000000083816112ee576112ed611968565b5b0492506020810190505b662386f26fc10000831061132757662386f26fc10000838161131d5761131c611968565b5b0492506010810190505b6305f5e1008310611350576305f5e100838161134657611345611968565b5b0492506008810190505b612710831061137557612710838161136b5761136a611968565b5b0492506004810190505b60648310611398576064838161138e5761138d611968565b5b0492506002810190505b600a83106113a7576001810190505b80915050919050565b600080fd5b60007fffffffff0000000000000000000000000000000000000000000000000000000082169050919050565b6113ea816113b5565b81146113f557600080fd5b50565b600081359050611407816113e1565b92915050565b600060208284031215611423576114226113b0565b5b6000611431848285016113f8565b91505092915050565b60008115159050919050565b61144f8161143a565b82525050565b600060208201905061146a6000830184611446565b92915050565b600073ffffffffffffffffffffffffffffffffffffffff82169050919050565b600061149b82611470565b9050919050565b6114ab81611490565b82525050565b60006020820190506114c660008301846114a2565b92915050565b600081519050919050565b600082825260208201905092915050565b60005b838110156115065780820151818401526020810190506114eb565b60008484015250505050565b6000601f19601f8301169050919050565b600061152e826114cc565b61153881856114d7565b93506115488185602086016114e8565b61155181611512565b840191505092915050565b600060208201905081810360008301526115768184611523565b905092915050565b61158781611490565b811461159257600080fd5b50565b6000813590506115a48161157e565b92915050565b6000819050919050565b6115bd816115aa565b81146115c857600080fd5b50565b6000813590506115da816115b4565b92915050565b600080604083850312156115f7576115f66113b0565b5b600061160585828601611595565b9250506020611616858286016115cb565b9150509250929050565b611629816115aa565b82525050565b60006020820190506116446000830184611620565b92915050565b600080600060608486031215611663576116626113b0565b5b600061167186828701611595565b935050602061168286828701611595565b9250506040611693868287016115cb565b9150509250925092565b600060ff82169050919050565b6116b38161169d565b82525050565b60006020820190506116ce60008301846116aa565b92915050565b6000602082840312156116ea576116e96113b0565b5b60006116f884828501611595565b91505092915050565b60008060408385031215611718576117176113b0565b5b600061172685828601611595565b925050602061173785828601611595565b9150509250929050565b7f4e487b7100000000000000000000000000000000000000000000000000000000600052602260045260246000fd5b6000600282049050600182168061178857607f821691505b60208210810361179b5761179a611741565b5b50919050565b7f4f7074696d69736d4d696e7461626c6545524332303a206f6e6c79206272696460008201527f67652063616e206d696e7420616e64206275726e000000000000000000000000602082015250565b60006117fd6034836114d7565b9150611808826117a1565b604082019050919050565b6000602082019050818103600083015261182c816117f0565b9050919050565b600081905092915050565b6000611849826114cc565b6118538185611833565b93506118638185602086016114e8565b80840191505092915050565b7f2e00000000000000000000000000000000000000000000000000000000000000600082015250565b60006118a5600183611833565b91506118b08261186f565b600182019050919050565b60006118c7828661183e565b91506118d282611898565b91506118de828561183e565b91506118e982611898565b91506118f5828461183e565b9150819050949350505050565b600060608201905061191760008301866114a2565b6119246020830185611620565b6119316040830184611620565b949350505050565b7f4e487b7100000000000000000000000000000000000000000000000000000000600052604160045260246000fd5b7f4e487b7100000000000000000000000000000000000000000000000000000000600052601260045260246000fd5b7f4e487b7100000000000000000000000000000000000000000000000000000000600052601160045260246000fd5b60006119d1826115aa565b91506119dc836115aa565b92508282019050808211156119f4576119f3611997565b5b9291505056fea26469706673582212209250d9b6933ed6b4533b14e17e3597485fc55fa70bab87c4685fcab0b6bd96d064736f6c63430008140033",
  "linkReferences": {},
  "deployedLinkReferences": {}
}