{
    "abi": [
        {
            "inputs": [
                {
                    "internalType": "address",
                    "name": "_implementation",
                    "type": "address"
                },
                {
                    "internalType": "address",
                    "name": "_bridge",
                    "type": "address"
                }
            ],
            "stateMutability": "nonpayable",
            "type": "constructor"
        },
        {
            "inputs": [],
            "name": "BridgeAddressCannotBeZero",
            "type": "error"
        },
        {
            "inputs": [],
            "name": "FailedDeployment",
            "type": "error"
        },
        {
            "inputs": [],
            "name": "ImplementationCannotBeNull",
            "type": "error"
        },
        {
            "inputs": [
                {
                    "internalType": "uint256",
                    "name": "balance",
                    "type": "uint256"
                },
                {
                    "internalType": "uint256",
                    "name": "needed",
                    "type": "uint256"
                }
            ],
            "name": "InsufficientBalance",
            "type": "error"
        },
        {
            "inputs": [],
            "name": "RemoteTokenCannotBeZeroAddress",
            "type": "error"
        },
        {
            "anonymous": false,
            "inputs": [
                {
                    "indexed": true,
                    "internalType": "address",
                    "name": "remoteToken",
                    "type": "address"
                },
                {
                    "indexed": true,
                    "internalType": "address",
                    "name": "localToken",
                    "type": "address"
                },
                {
                    "indexed": false,
                    "internalType": "address",
                    "name": "deployer",
                    "type": "address"
                }
            ],
            "name": "BasedMigrateERC20Created",
            "type": "event"
        },
        {
            "inputs": [],
            "name": "BRIDGE",
            "outputs": [
                {
                    "internalType": "address",
                    "name": "",
                    "type": "address"
                }
            ],
            "stateMutability": "view",
            "type": "function"
        },
        {
            "inputs": [],
            "name": "basedMigrateErc20",
            "outputs": [
                {
                    "internalType": "address",
                    "name": "",
                    "type": "address"
                }
            ],
            "stateMutability": "view",
            "type": "function"
        },
        {
            "inputs": [
                {
                    "internalType": "address",
                    "name": "_remoteToken",
                    "type": "address"
                },
                {
                    "internalType": "string",
                    "name": "_name",
                    "type": "string"
                },
                {
                    "internalType": "string",
                    "name": "_symbol",
                    "type": "string"
                },
                {
                    "internalType": "uint8",
                    "name": "_decimals",
                    "type": "uint8"
                }
            ],
            "name": "beBased",
            "outputs": [
                {
                    "internalType": "address",
                    "name": "",
                    "type": "address"
                }
            ],
            "stateMutability": "nonpayable",
            "type": "function"
        },
        {
            "inputs": [],
            "name": "version",
            "outputs": [
                {
                    "internalType": "string",
                    "name": "",
                    "type": "string"
                }
            ],
            "stateMutability": "view",
            "type": "function"
        }
    ],
    "bytecode": {
        "object": "0x60c060405234801561001057600080fd5b5060405161070438038061070483398101604081905261002f916100b0565b6001600160a01b03811661005657604051635e9c404d60e11b815260040160405180910390fd5b6001600160a01b03821661007d5760405163f9f4e47960e01b815260040160405180910390fd5b6001600160a01b039182166080521660a0526100e3565b80516001600160a01b03811681146100ab57600080fd5b919050565b600080604083850312156100c357600080fd5b6100cc83610094565b91506100da60208401610094565b90509250929050565b60805160a0516105ef6101156000396000818161010301526101ec01526000818160dc015261017b01526105ef6000f3fe608060405234801561001057600080fd5b506004361061004c5760003560e01c8063111e41591461005157806354fd4d501461008e578063df28f44d146100d7578063ee9a31a2146100fe575b600080fd5b61006461005f366004610468565b610125565b60405173ffffffffffffffffffffffffffffffffffffffff90911681526020015b60405180910390f35b6100ca6040518060400160405280600581526020017f312e302e3000000000000000000000000000000000000000000000000000000081525081565b6040516100859190610574565b6100647f000000000000000000000000000000000000000000000000000000000000000081565b6100647f000000000000000000000000000000000000000000000000000000000000000081565b600073ffffffffffffffffffffffffffffffffffffffff8516610174576040517fb354420000000000000000000000000000000000000000000000000000000000815260040160405180910390fd5b600061019f7f00000000000000000000000000000000000000000000000000000000000000006102a6565b6040517f8420ce9900000000000000000000000000000000000000000000000000000000815290915073ffffffffffffffffffffffffffffffffffffffff821690638420ce999061021c907f0000000000000000000000000000000000000000000000000000000000000000908a908a908a908a9060040161058e565b600060405180830381600087803b15801561023657600080fd5b505af115801561024a573d6000803e3d6000fd5b505060405133815273ffffffffffffffffffffffffffffffffffffffff8085169350891691507f95bf0d30a6de0ea41fc14e970cffd1cad0b7f8b39e7284c7bc8dcb37e83da5d89060200160405180910390a395945050505050565b60006102b38260006102b9565b92915050565b600081471015610302576040517fcf4791810000000000000000000000000000000000000000000000000000000081524760048201526024810183905260440160405180910390fd5b6e5af43d82803e903d91602b57fd5bf360205282601152763d602d80600a3d3981f3363d3d373d3d3d363d730000008360881c176000526037600983f0905073ffffffffffffffffffffffffffffffffffffffff81166102b3576040517fb06ebf3d00000000000000000000000000000000000000000000000000000000815260040160405180910390fd5b7f4e487b7100000000000000000000000000000000000000000000000000000000600052604160045260246000fd5b600082601f8301126103ce57600080fd5b813567ffffffffffffffff808211156103e9576103e961038e565b604051601f83017fffffffffffffffffffffffffffffffffffffffffffffffffffffffffffffffe0908116603f0116810190828211818310171561042f5761042f61038e565b8160405283815286602085880101111561044857600080fd5b836020870160208301376000602085830101528094505050505092915050565b6000806000806080858703121561047e57600080fd5b843573ffffffffffffffffffffffffffffffffffffffff811681146104a257600080fd5b9350602085013567ffffffffffffffff808211156104bf57600080fd5b6104cb888389016103bd565b945060408701359150808211156104e157600080fd5b506104ee878288016103bd565b925050606085013560ff8116811461050557600080fd5b939692955090935050565b6000815180845260005b818110156105365760208185018101518683018201520161051a565b5060006020828601015260207fffffffffffffffffffffffffffffffffffffffffffffffffffffffffffffffe0601f83011685010191505092915050565b6020815260006105876020830184610510565b9392505050565b600073ffffffffffffffffffffffffffffffffffffffff808816835280871660208401525060a060408301526105c760a0830186610510565b82810360608401526105d98186610510565b91505060ff83166080830152969550505050505056",
        "linkReferences": {}
    },
    "methodIdentifiers": {
        "BRIDGE()": "ee9a31a2",
        "basedMigrateErc20()": "df28f44d",
        "beBased(address,string,string,uint8)": "111e4159",
        "version()": "54fd4d50"
    },
    "id": 47
}