{
  "abi": [
    {
      "inputs": [
        {
          "internalType": "address",
          "name": "_implementation",
          "type": "address"
        },
        {
          "internalType": "address",
          "name": "_bridge",
          "type": "address"
        }
      ],
      "stateMutability": "nonpayable",
      "type": "constructor"
    },
    {
      "inputs": [],
      "name": "BridgeAddressCannotBeZero",
      "type": "error"
    },
    {
      "inputs": [],
      "name": "FailedDeployment",
      "type": "error"
    },
    {
      "inputs": [],
      "name": "ImplementationCannotBeNull",
      "type": "error"
    },
    {
      "inputs": [
        {
          "internalType": "uint256",
          "name": "balance",
          "type": "uint256"
        },
        {
          "internalType": "uint256",
          "name": "needed",
          "type": "uint256"
        }
      ],
      "name": "InsufficientBalance",
      "type": "error"
    },
    {
      "inputs": [],
      "name": "RemoteTokenCannotBeZeroAddress",
      "type": "error"
    },
    {
      "anonymous": false,
      "inputs": [
        {
          "indexed": true,
          "internalType": "address",
          "name": "remoteToken",
          "type": "address"
        },
        {
          "indexed": true,
          "internalType": "address",
          "name": "localToken",
          "type": "address"
        },
        {
          "indexed": false,
          "internalType": "address",
          "name": "deployer",
          "type": "address"
        }
      ],
      "name": "BasedMigrateERC20Created",
      "type": "event"
    },
    {
      "inputs": [],
      "name": "BRIDGE",
      "outputs": [
        {
          "internalType": "address",
          "name": "",
          "type": "address"
        }
      ],
      "stateMutability": "view",
      "type": "function"
    },
    {
      "inputs": [],
      "name": "basedMigrateErc20",
      "outputs": [
        {
          "internalType": "address",
          "name": "",
          "type": "address"
        }
      ],
      "stateMutability": "view",
      "type": "function"
    },
    {
      "inputs": [
        {
          "internalType": "address",
          "name": "_remoteToken",
          "type": "address"
        },
        {
          "internalType": "string",
          "name": "_name",
          "type": "string"
        },
        {
          "internalType": "string",
          "name": "_symbol",
          "type": "string"
        }
      ],
      "name": "beBased",
      "outputs": [
        {
          "internalType": "address",
          "name": "",
          "type": "address"
        }
      ],
      "stateMutability": "nonpayable",
      "type": "function"
    },
    {
      "inputs": [],
      "name": "version",
      "outputs": [
        {
          "internalType": "string",
          "name": "",
          "type": "string"
        }
      ],
      "stateMutability": "view",
      "type": "function"
    }
  ],
  "bytecode": {
    "object": "0x60c060405234801561001057600080fd5b506040516106e13803806106e183398101604081905261002f916100b0565b6001600160a01b03811661005657604051635e9c404d60e11b815260040160405180910390fd5b6001600160a01b03821661007d5760405163f9f4e47960e01b815260040160405180910390fd5b6001600160a01b039182166080521660a0526100e3565b80516001600160a01b03811681146100ab57600080fd5b919050565b600080604083850312156100c357600080fd5b6100cc83610094565b91506100da60208401610094565b90509250929050565b60805160a0516105cc6101156000396000818161010701526101f001526000818160e0015261017f01526105cc6000f3fe608060405234801561001057600080fd5b506004361061004c5760003560e01c806354fd4d5014610051578063a4c476db146100a3578063df28f44d146100db578063ee9a31a214610102575b600080fd5b61008d6040518060400160405280600581526020017f312e302e3000000000000000000000000000000000000000000000000000000081525081565b60405161009a91906103f3565b60405180910390f35b6100b66100b13660046104e7565b610129565b60405173ffffffffffffffffffffffffffffffffffffffff909116815260200161009a565b6100b67f000000000000000000000000000000000000000000000000000000000000000081565b6100b67f000000000000000000000000000000000000000000000000000000000000000081565b600073ffffffffffffffffffffffffffffffffffffffff8416610178576040517fb354420000000000000000000000000000000000000000000000000000000000815260040160405180910390fd5b60006101a37f00000000000000000000000000000000000000000000000000000000000000006102a7565b6040517f2016a0d200000000000000000000000000000000000000000000000000000000815290915073ffffffffffffffffffffffffffffffffffffffff821690632016a0d29061021e907f000000000000000000000000000000000000000000000000000000000000000090899089908990600401610576565b600060405180830381600087803b15801561023857600080fd5b505af115801561024c573d6000803e3d6000fd5b505060405133815273ffffffffffffffffffffffffffffffffffffffff8085169350881691507f95bf0d30a6de0ea41fc14e970cffd1cad0b7f8b39e7284c7bc8dcb37e83da5d89060200160405180910390a3949350505050565b60006102b48260006102ba565b92915050565b600081471015610303576040517fcf4791810000000000000000000000000000000000000000000000000000000081524760048201526024810183905260440160405180910390fd5b6e5af43d82803e903d91602b57fd5bf360205282601152763d602d80600a3d3981f3363d3d373d3d3d363d730000008360881c176000526037600983f0905073ffffffffffffffffffffffffffffffffffffffff81166102b4576040517fb06ebf3d00000000000000000000000000000000000000000000000000000000815260040160405180910390fd5b6000815180845260005b818110156103b557602081850181015186830182015201610399565b5060006020828601015260207fffffffffffffffffffffffffffffffffffffffffffffffffffffffffffffffe0601f83011685010191505092915050565b602081526000610406602083018461038f565b9392505050565b7f4e487b7100000000000000000000000000000000000000000000000000000000600052604160045260246000fd5b600082601f83011261044d57600080fd5b813567ffffffffffffffff808211156104685761046861040d565b604051601f83017fffffffffffffffffffffffffffffffffffffffffffffffffffffffffffffffe0908116603f011681019082821181831017156104ae576104ae61040d565b816040528381528660208588010111156104c757600080fd5b836020870160208301376000602085830101528094505050505092915050565b6000806000606084860312156104fc57600080fd5b833573ffffffffffffffffffffffffffffffffffffffff8116811461052057600080fd5b9250602084013567ffffffffffffffff8082111561053d57600080fd5b6105498783880161043c565b9350604086013591508082111561055f57600080fd5b5061056c8682870161043c565b9150509250925092565b600073ffffffffffffffffffffffffffffffffffffffff8087168352808616602084015250608060408301526105af608083018561038f565b82810360608401526105c1818561038f565b97965050505050505056",
    "linkReferences": {}
  },
  "methodIdentifiers": {
    "BRIDGE()": "ee9a31a2",
    "basedMigrateErc20()": "df28f44d",
    "beBased(address,string,string)": "a4c476db",
    "version()": "54fd4d50"
  },
  "id": 47
}