{
  "abi": [
    {
      "inputs": [
        {
          "internalType": "address",
          "name": "_bridge",
          "type": "address"
        }
      ],
      "stateMutability": "nonpayable",
      "type": "constructor"
    },
    {
      "anonymous": false,
      "inputs": [
        {
          "indexed": true,
          "internalType": "address",
          "name": "localToken",
          "type": "address"
        },
        {
          "indexed": true,
          "internalType": "address",
          "name": "remoteToken",
          "type": "address"
        },
        {
          "indexed": false,
          "internalType": "address",
          "name": "deployer",
          "type": "address"
        }
      ],
      "name": "OptimismMintableERC20Created",
      "type": "event"
    },
    {
      "anonymous": false,
      "inputs": [
        {
          "indexed": true,
          "internalType": "address",
          "name": "remoteToken",
          "type": "address"
        },
        {
          "indexed": true,
          "internalType": "address",
          "name": "localToken",
          "type": "address"
        }
      ],
      "name": "StandardL2TokenCreated",
      "type": "event"
    },
    {
      "inputs": [],
      "name": "BRIDGE",
      "outputs": [
        {
          "internalType": "address",
          "name": "",
          "type": "address"
        }
      ],
      "stateMutability": "view",
      "type": "function"
    },
    {
      "inputs": [
        {
          "internalType": "address",
          "name": "_remoteToken",
          "type": "address"
        },
        {
          "internalType": "string",
          "name": "_name",
          "type": "string"
        },
        {
          "internalType": "string",
          "name": "_symbol",
          "type": "string"
        }
      ],
      "name": "createOptimismMintableERC20",
      "outputs": [
        {
          "internalType": "address",
          "name": "",
          "type": "address"
        }
      ],
      "stateMutability": "nonpayable",
      "type": "function"
    },
    {
      "inputs": [
        {
          "internalType": "address",
          "name": "_remoteToken",
          "type": "address"
        },
        {
          "internalType": "string",
          "name": "_name",
          "type": "string"
        },
        {
          "internalType": "string",
          "name": "_symbol",
          "type": "string"
        }
      ],
      "name": "createStandardL2Token",
      "outputs": [
        {
          "internalType": "address",
          "name": "",
          "type": "address"
        }
      ],
      "stateMutability": "nonpayable",
      "type": "function"
    },
    {
      "inputs": [],
      "name": "version",
      "outputs": [
        {
          "internalType": "string",
          "name": "",
          "type": "string"
        }
      ],
      "stateMutability": "view",
      "type": "function"
    }
  ],
  "bytecode": {
    "object": "0x61010060405234801561001157600080fd5b50604051611e48380380611e4883398101604081905261003091610050565b6001608081905260a052600260c0526001600160a01b031660e052610080565b60006020828403121561006257600080fd5b81516001600160a01b038116811461007957600080fd5b9392505050565b60805160a05160c05160e051611d8a6100be6000396000818160d3015261026501526000610153015260006101280152600060fd0152611d8a6000f3fe60806040523480156200001157600080fd5b5060043610620000525760003560e01c806354fd4d501462000057578063896f93d11462000079578063ce5ac90f14620000b6578063ee9a31a214620000cd575b600080fd5b62000061620000f5565b604051620000709190620005a5565b60405180910390f35b620000906200008a366004620006a3565b620001a0565b60405173ffffffffffffffffffffffffffffffffffffffff909116815260200162000070565b62000090620000c7366004620006a3565b620001b7565b620000907f000000000000000000000000000000000000000000000000000000000000000081565b6060620001227f000000000000000000000000000000000000000000000000000000000000000062000376565b6200014d7f000000000000000000000000000000000000000000000000000000000000000062000376565b620001787f000000000000000000000000000000000000000000000000000000000000000062000376565b6040516020016200018c939291906200073a565b604051602081830303815290604052905090565b6000620001af848484620001b7565b949350505050565b600073ffffffffffffffffffffffffffffffffffffffff841662000261576040517f08c379a000000000000000000000000000000000000000000000000000000000815260206004820152603f60248201527f4f7074696d69736d4d696e7461626c654552433230466163746f72793a206d7560448201527f73742070726f766964652072656d6f746520746f6b656e206164647265737300606482015260840160405180910390fd5b60007f0000000000000000000000000000000000000000000000000000000000000000858585604051620002959062000525565b620002a49493929190620007b6565b604051809103906000f080158015620002c1573d6000803e3d6000fd5b5090508073ffffffffffffffffffffffffffffffffffffffff168573ffffffffffffffffffffffffffffffffffffffff167fceeb8e7d520d7f3b65fc11a262b91066940193b05d4f93df07cfdced0eb551cf60405160405180910390a360405133815273ffffffffffffffffffffffffffffffffffffffff80871691908316907f52fe89dd5930f343d25650b62fd367bae47088bcddffd2a88350a6ecdd620cdb9060200160405180910390a3949350505050565b6060600062000385836200043b565b600101905060008167ffffffffffffffff811115620003a857620003a8620005c1565b6040519080825280601f01601f191660200182016040528015620003d3576020820181803683370190505b5090508181016020015b7fffffffffffffffffffffffffffffffffffffffffffffffffffffffffffffffff017f3031323334353637383961626364656600000000000000000000000000000000600a86061a8153600a8504945084620003dd57509392505050565b6000807a184f03e93ff9f4daa797ed6e38ed64bf6a1f010000000000000000831062000485577a184f03e93ff9f4daa797ed6e38ed64bf6a1f010000000000000000830492506040015b6d04ee2d6d415b85acef81000000008310620004b2576d04ee2d6d415b85acef8100000000830492506020015b662386f26fc100008310620004d157662386f26fc10000830492506010015b6305f5e1008310620004ea576305f5e100830492506008015b6127108310620004ff57612710830492506004015b6064831062000512576064830492506002015b600a83106200051f576001015b92915050565b611579806200081183390190565b60005b838110156200055057818101518382015260200162000536565b50506000910152565b600081518084526200057381602086016020860162000533565b601f017fffffffffffffffffffffffffffffffffffffffffffffffffffffffffffffffe0169290920160200192915050565b602081526000620005ba602083018462000559565b9392505050565b7f4e487b7100000000000000000000000000000000000000000000000000000000600052604160045260246000fd5b600082601f8301126200060257600080fd5b813567ffffffffffffffff80821115620006205762000620620005c1565b604051601f83017fffffffffffffffffffffffffffffffffffffffffffffffffffffffffffffffe0908116603f01168101908282118183101715620006695762000669620005c1565b816040528381528660208588010111156200068357600080fd5b836020870160208301376000602085830101528094505050505092915050565b600080600060608486031215620006b957600080fd5b833573ffffffffffffffffffffffffffffffffffffffff81168114620006de57600080fd5b9250602084013567ffffffffffffffff80821115620006fc57600080fd5b6200070a87838801620005f0565b935060408601359150808211156200072157600080fd5b506200073086828701620005f0565b9150509250925092565b600084516200074e81846020890162000533565b80830190507f2e0000000000000000000000000000000000000000000000000000000000000080825285516200078c816001850160208a0162000533565b60019201918201528351620007a981600284016020880162000533565b0160020195945050505050565b600073ffffffffffffffffffffffffffffffffffffffff808716835280861660208401525060806040830152620007f1608083018562000559565b828103606084015262000805818562000559565b97965050505050505056fe6101206040523480156200001257600080fd5b506040516200157938038062001579833981016040819052620000359162000165565b6001600060038484826200004a838262000284565b50600462000059828262000284565b50505060809290925260a05260c05250506001600160a01b0390811660e052166101005262000350565b80516001600160a01b03811681146200009b57600080fd5b919050565b634e487b7160e01b600052604160045260246000fd5b600082601f830112620000c857600080fd5b81516001600160401b0380821115620000e557620000e5620000a0565b604051601f8301601f19908116603f01168101908282118183101715620001105762000110620000a0565b816040528381526020925086838588010111156200012d57600080fd5b600091505b8382101562000151578582018301518183018401529082019062000132565b600093810190920192909252949350505050565b600080600080608085870312156200017c57600080fd5b620001878562000083565b9350620001976020860162000083565b60408601519093506001600160401b0380821115620001b557600080fd5b620001c388838901620000b6565b93506060870151915080821115620001da57600080fd5b50620001e987828801620000b6565b91505092959194509250565b600181811c908216806200020a57607f821691505b6020821081036200022b57634e487b7160e01b600052602260045260246000fd5b50919050565b601f8211156200027f57600081815260208120601f850160051c810160208610156200025a5750805b601f850160051c820191505b818110156200027b5782815560010162000266565b5050505b505050565b81516001600160401b03811115620002a057620002a0620000a0565b620002b881620002b18454620001f5565b8462000231565b602080601f831160018114620002f05760008415620002d75750858301515b600019600386901b1c1916600185901b1785556200027b565b600085815260208120601f198616915b82811015620003215788860151825594840194600190910190840162000300565b5085821015620003405787850151600019600388901b60f8161c191681555b5050505050600190811b01905550565b60805160a05160c05160e051610100516111c8620003b1600039600081816102a90152818161033e01528181610539015261071301526000818161018301526102cf015260006106a2015260006106790152600061065001526111c86000f3fe608060405234801561001057600080fd5b50600436106101515760003560e01c806370a08231116100cd578063c01e1bd611610081578063dd62ed3e11610066578063dd62ed3e146102f3578063e78cea92146102a7578063ee9a31a21461033957600080fd5b8063c01e1bd6146102cd578063d6c0b2c4146102cd57600080fd5b80639dc29fac116100b25780639dc29fac14610281578063a9059cbb14610294578063ae1f6aaf146102a757600080fd5b806370a082311461024357806395d89b411461027957600080fd5b806318160ddd11610124578063313ce56711610109578063313ce5671461021757806340c10f191461022657806354fd4d501461023b57600080fd5b806318160ddd146101f257806323b872dd1461020457600080fd5b806301ffc9a714610156578063033964be1461017e57806306fdde03146101ca578063095ea7b3146101df575b600080fd5b610169610164366004610efb565b610360565b60405190151581526020015b60405180910390f35b6101a57f000000000000000000000000000000000000000000000000000000000000000081565b60405173ffffffffffffffffffffffffffffffffffffffff9091168152602001610175565b6101d2610451565b6040516101759190610f68565b6101696101ed366004610fe2565b6104e3565b6002545b604051908152602001610175565b61016961021236600461100c565b6104fd565b60405160128152602001610175565b610239610234366004610fe2565b610521565b005b6101d2610649565b6101f6610251366004611048565b73ffffffffffffffffffffffffffffffffffffffff1660009081526020819052604090205490565b6101d26106ec565b61023961028f366004610fe2565b6106fb565b6101696102a2366004610fe2565b610812565b7f00000000000000000000000000000000000000000000000000000000000000006101a5565b7f00000000000000000000000000000000000000000000000000000000000000006101a5565b6101f6610301366004611063565b73ffffffffffffffffffffffffffffffffffffffff918216600090815260016020908152604080832093909416825291909152205490565b6101a57f000000000000000000000000000000000000000000000000000000000000000081565b60007f01ffc9a7000000000000000000000000000000000000000000000000000000007f1d1d8b63000000000000000000000000000000000000000000000000000000007fec4fc8e3000000000000000000000000000000000000000000000000000000007fffffffff00000000000000000000000000000000000000000000000000000000851683148061041957507fffffffff00000000000000000000000000000000000000000000000000000000858116908316145b8061044857507fffffffff00000000000000000000000000000000000000000000000000000000858116908216145b95945050505050565b60606003805461046090611096565b80601f016020809104026020016040519081016040528092919081815260200182805461048c90611096565b80156104d95780601f106104ae576101008083540402835291602001916104d9565b820191906000526020600020905b8154815290600101906020018083116104bc57829003601f168201915b5050505050905090565b6000336104f1818585610820565b60019150505b92915050565b60003361050b858285610832565b610516858585610901565b506001949350505050565b3373ffffffffffffffffffffffffffffffffffffffff7f000000000000000000000000000000000000000000000000000000000000000016146105eb576040517f08c379a000000000000000000000000000000000000000000000000000000000815260206004820152603460248201527f4f7074696d69736d4d696e7461626c6545524332303a206f6e6c79206272696460448201527f67652063616e206d696e7420616e64206275726e00000000000000000000000060648201526084015b60405180910390fd5b6105f582826109ac565b8173ffffffffffffffffffffffffffffffffffffffff167f0f6798a560793a54c3bcfe86a93cde1e73087d944c0ea20544137d41213968858260405161063d91815260200190565b60405180910390a25050565b60606106747f0000000000000000000000000000000000000000000000000000000000000000610a0c565b61069d7f0000000000000000000000000000000000000000000000000000000000000000610a0c565b6106c67f0000000000000000000000000000000000000000000000000000000000000000610a0c565b6040516020016106d8939291906110e9565b604051602081830303815290604052905090565b60606004805461046090611096565b3373ffffffffffffffffffffffffffffffffffffffff7f000000000000000000000000000000000000000000000000000000000000000016146107c0576040517f08c379a000000000000000000000000000000000000000000000000000000000815260206004820152603460248201527f4f7074696d69736d4d696e7461626c6545524332303a206f6e6c79206272696460448201527f67652063616e206d696e7420616e64206275726e00000000000000000000000060648201526084016105e2565b6107ca8282610aca565b8173ffffffffffffffffffffffffffffffffffffffff167fcc16f5dbb4873280815c1ee09dbd06736cffcc184412cf7a71a0fdb75d397ca58260405161063d91815260200190565b6000336104f1818585610901565b61082d8383836001610b26565b505050565b73ffffffffffffffffffffffffffffffffffffffff8381166000908152600160209081526040808320938616835292905220547fffffffffffffffffffffffffffffffffffffffffffffffffffffffffffffffff81146108fb57818110156108ec576040517ffb8f41b200000000000000000000000000000000000000000000000000000000815273ffffffffffffffffffffffffffffffffffffffff8416600482015260248101829052604481018390526064016105e2565b6108fb84848484036000610b26565b50505050565b73ffffffffffffffffffffffffffffffffffffffff8316610951576040517f96c6fd1e000000000000000000000000000000000000000000000000000000008152600060048201526024016105e2565b73ffffffffffffffffffffffffffffffffffffffff82166109a1576040517fec442f05000000000000000000000000000000000000000000000000000000008152600060048201526024016105e2565b61082d838383610c6e565b73ffffffffffffffffffffffffffffffffffffffff82166109fc576040517fec442f05000000000000000000000000000000000000000000000000000000008152600060048201526024016105e2565b610a0860008383610c6e565b5050565b60606000610a1983610e19565b600101905060008167ffffffffffffffff811115610a3957610a3961115f565b6040519080825280601f01601f191660200182016040528015610a63576020820181803683370190505b5090508181016020015b7fffffffffffffffffffffffffffffffffffffffffffffffffffffffffffffffff017f3031323334353637383961626364656600000000000000000000000000000000600a86061a8153600a8504945084610a6d57509392505050565b73ffffffffffffffffffffffffffffffffffffffff8216610b1a576040517f96c6fd1e000000000000000000000000000000000000000000000000000000008152600060048201526024016105e2565b610a0882600083610c6e565b73ffffffffffffffffffffffffffffffffffffffff8416610b76576040517fe602df05000000000000000000000000000000000000000000000000000000008152600060048201526024016105e2565b73ffffffffffffffffffffffffffffffffffffffff8316610bc6576040517f94280d62000000000000000000000000000000000000000000000000000000008152600060048201526024016105e2565b73ffffffffffffffffffffffffffffffffffffffff808516600090815260016020908152604080832093871683529290522082905580156108fb578273ffffffffffffffffffffffffffffffffffffffff168473ffffffffffffffffffffffffffffffffffffffff167f8c5be1e5ebec7d5bd14f71427d1e84f3dd0314c0f7b2291e5b200ac8c7c3b92584604051610c6091815260200190565b60405180910390a350505050565b73ffffffffffffffffffffffffffffffffffffffff8316610ca6578060026000828254610c9b919061118e565b90915550610d589050565b73ffffffffffffffffffffffffffffffffffffffff831660009081526020819052604090205481811015610d2c576040517fe450d38c00000000000000000000000000000000000000000000000000000000815273ffffffffffffffffffffffffffffffffffffffff8516600482015260248101829052604481018390526064016105e2565b73ffffffffffffffffffffffffffffffffffffffff841660009081526020819052604090209082900390555b73ffffffffffffffffffffffffffffffffffffffff8216610d8157600280548290039055610dad565b73ffffffffffffffffffffffffffffffffffffffff821660009081526020819052604090208054820190555b8173ffffffffffffffffffffffffffffffffffffffff168373ffffffffffffffffffffffffffffffffffffffff167fddf252ad1be2c89b69c2b068fc378daa952ba7f163c4a11628f55a4df523b3ef83604051610e0c91815260200190565b60405180910390a3505050565b6000807a184f03e93ff9f4daa797ed6e38ed64bf6a1f0100000000000000008310610e62577a184f03e93ff9f4daa797ed6e38ed64bf6a1f010000000000000000830492506040015b6d04ee2d6d415b85acef81000000008310610e8e576d04ee2d6d415b85acef8100000000830492506020015b662386f26fc100008310610eac57662386f26fc10000830492506010015b6305f5e1008310610ec4576305f5e100830492506008015b6127108310610ed857612710830492506004015b60648310610eea576064830492506002015b600a83106104f75760010192915050565b600060208284031215610f0d57600080fd5b81357fffffffff0000000000000000000000000000000000000000000000000000000081168114610f3d57600080fd5b9392505050565b60005b83811015610f5f578181015183820152602001610f47565b50506000910152565b6020815260008251806020840152610f87816040850160208701610f44565b601f017fffffffffffffffffffffffffffffffffffffffffffffffffffffffffffffffe0169190910160400192915050565b803573ffffffffffffffffffffffffffffffffffffffff81168114610fdd57600080fd5b919050565b60008060408385031215610ff557600080fd5b610ffe83610fb9565b946020939093013593505050565b60008060006060848603121561102157600080fd5b61102a84610fb9565b925061103860208501610fb9565b9150604084013590509250925092565b60006020828403121561105a57600080fd5b610f3d82610fb9565b6000806040838503121561107657600080fd5b61107f83610fb9565b915061108d60208401610fb9565b90509250929050565b600181811c908216806110aa57607f821691505b6020821081036110e3577f4e487b7100000000000000000000000000000000000000000000000000000000600052602260045260246000fd5b50919050565b600084516110fb818460208901610f44565b80830190507f2e000000000000000000000000000000000000000000000000000000000000008082528551611137816001850160208a01610f44565b60019201918201528351611152816002840160208801610f44565b0160020195945050505050565b7f4e487b7100000000000000000000000000000000000000000000000000000000600052604160045260246000fd5b808201808211156104f7577f4e487b7100000000000000000000000000000000000000000000000000000000600052601160045260246000fd",
    "linkReferences": {}
  },
  "methodIdentifiers": {
    "BRIDGE()": "ee9a31a2",
    "createOptimismMintableERC20(address,string,string)": "ce5ac90f",
    "createStandardL2Token(address,string,string)": "896f93d1",
    "version()": "54fd4d50"
  },
  "id": 15
}